{
  "contractName": "SolnSquareVerifier",
  "abi": [
    {
      "constant": true,
      "inputs": [
        {
          "name": "interfaceId",
          "type": "bytes4"
        }
      ],
      "name": "supportsInterface",
      "outputs": [
        {
          "name": "",
          "type": "bool"
        }
      ],
      "payable": false,
      "stateMutability": "view",
      "type": "function"
    },
    {
      "constant": true,
      "inputs": [
        {
          "name": "tokenId",
          "type": "uint256"
        }
      ],
      "name": "getApproved",
      "outputs": [
        {
          "name": "",
          "type": "address"
        }
      ],
      "payable": false,
      "stateMutability": "view",
      "type": "function"
    },
    {
      "constant": false,
      "inputs": [
        {
          "name": "to",
          "type": "address"
        },
        {
          "name": "tokenId",
          "type": "uint256"
        }
      ],
      "name": "approve",
      "outputs": [],
      "payable": false,
      "stateMutability": "nonpayable",
      "type": "function"
    },
    {
      "constant": true,
      "inputs": [],
      "name": "getSymbol",
      "outputs": [
        {
          "name": "",
          "type": "string"
        }
      ],
      "payable": false,
      "stateMutability": "view",
      "type": "function"
    },
    {
      "constant": false,
      "inputs": [
        {
          "name": "state",
          "type": "bool"
        }
      ],
      "name": "setPaused",
      "outputs": [],
      "payable": false,
      "stateMutability": "nonpayable",
      "type": "function"
    },
    {
      "constant": true,
      "inputs": [],
      "name": "getName",
      "outputs": [
        {
          "name": "",
          "type": "string"
        }
      ],
      "payable": false,
      "stateMutability": "view",
      "type": "function"
    },
    {
      "constant": true,
      "inputs": [],
      "name": "totalSupply",
      "outputs": [
        {
          "name": "",
          "type": "uint256"
        }
      ],
      "payable": false,
      "stateMutability": "view",
      "type": "function"
    },
    {
      "constant": false,
      "inputs": [
        {
          "name": "from",
          "type": "address"
        },
        {
          "name": "to",
          "type": "address"
        },
        {
          "name": "tokenId",
          "type": "uint256"
        }
      ],
      "name": "transferFrom",
      "outputs": [],
      "payable": false,
      "stateMutability": "nonpayable",
      "type": "function"
    },
    {
      "constant": false,
      "inputs": [
        {
          "name": "_myid",
          "type": "bytes32"
        },
        {
          "name": "_result",
          "type": "string"
        }
      ],
      "name": "__callback",
      "outputs": [],
      "payable": false,
      "stateMutability": "nonpayable",
      "type": "function"
    },
    {
      "constant": true,
      "inputs": [
        {
          "name": "owner",
          "type": "address"
        },
        {
          "name": "index",
          "type": "uint256"
        }
      ],
      "name": "tokenOfOwnerByIndex",
      "outputs": [
        {
          "name": "",
          "type": "uint256"
        }
      ],
      "payable": false,
      "stateMutability": "view",
      "type": "function"
    },
    {
      "constant": false,
      "inputs": [
        {
          "name": "_myid",
          "type": "bytes32"
        },
        {
          "name": "_result",
          "type": "string"
        },
        {
          "name": "_proof",
          "type": "bytes"
        }
      ],
      "name": "__callback",
      "outputs": [],
      "payable": false,
      "stateMutability": "nonpayable",
      "type": "function"
    },
    {
      "constant": false,
      "inputs": [
        {
          "name": "to",
          "type": "address"
        },
        {
          "name": "tokenId",
          "type": "uint256"
        }
      ],
      "name": "mint",
      "outputs": [
        {
          "name": "",
          "type": "bool"
        }
      ],
      "payable": false,
      "stateMutability": "nonpayable",
      "type": "function"
    },
    {
      "constant": false,
      "inputs": [
        {
          "name": "from",
          "type": "address"
        },
        {
          "name": "to",
          "type": "address"
        },
        {
          "name": "tokenId",
          "type": "uint256"
        }
      ],
      "name": "safeTransferFrom",
      "outputs": [],
      "payable": false,
      "stateMutability": "nonpayable",
      "type": "function"
    },
    {
      "constant": true,
      "inputs": [
        {
          "name": "index",
          "type": "uint256"
        }
      ],
      "name": "tokenByIndex",
      "outputs": [
        {
          "name": "",
          "type": "uint256"
        }
      ],
      "payable": false,
      "stateMutability": "view",
      "type": "function"
    },
    {
      "constant": true,
      "inputs": [
        {
          "name": "tokenId",
          "type": "uint256"
        }
      ],
      "name": "ownerOf",
      "outputs": [
        {
          "name": "",
          "type": "address"
        }
      ],
      "payable": false,
      "stateMutability": "view",
      "type": "function"
    },
    {
      "constant": true,
      "inputs": [],
      "name": "getPaused",
      "outputs": [
        {
          "name": "",
          "type": "bool"
        }
      ],
      "payable": false,
      "stateMutability": "view",
      "type": "function"
    },
    {
      "constant": true,
      "inputs": [
        {
          "name": "owner",
          "type": "address"
        }
      ],
      "name": "balanceOf",
      "outputs": [
        {
          "name": "",
          "type": "uint256"
        }
      ],
      "payable": false,
      "stateMutability": "view",
      "type": "function"
    },
    {
      "constant": true,
      "inputs": [],
      "name": "getOwner",
      "outputs": [
        {
          "name": "",
          "type": "address"
        }
      ],
      "payable": false,
      "stateMutability": "view",
      "type": "function"
    },
    {
      "constant": false,
      "inputs": [
        {
          "name": "to",
          "type": "address"
        },
        {
          "name": "approved",
          "type": "bool"
        }
      ],
      "name": "setApprovalForAll",
      "outputs": [],
      "payable": false,
      "stateMutability": "nonpayable",
      "type": "function"
    },
    {
      "constant": false,
      "inputs": [
        {
          "name": "from",
          "type": "address"
        },
        {
          "name": "to",
          "type": "address"
        },
        {
          "name": "tokenId",
          "type": "uint256"
        },
        {
          "name": "_data",
          "type": "bytes"
        }
      ],
      "name": "safeTransferFrom",
      "outputs": [],
      "payable": false,
      "stateMutability": "nonpayable",
      "type": "function"
    },
    {
      "constant": true,
      "inputs": [],
      "name": "getBaseTokenURI",
      "outputs": [
        {
          "name": "",
          "type": "string"
        }
      ],
      "payable": false,
      "stateMutability": "view",
      "type": "function"
    },
    {
      "constant": false,
      "inputs": [
        {
          "name": "tokenId",
          "type": "uint256"
        }
      ],
      "name": "setTokenURI",
      "outputs": [],
      "payable": false,
      "stateMutability": "nonpayable",
      "type": "function"
    },
    {
      "constant": true,
      "inputs": [
        {
          "name": "tokenId",
          "type": "uint256"
        }
      ],
      "name": "tokenURI",
      "outputs": [
        {
          "name": "",
          "type": "string"
        }
      ],
      "payable": false,
      "stateMutability": "view",
      "type": "function"
    },
    {
      "constant": true,
      "inputs": [
        {
          "name": "owner",
          "type": "address"
        },
        {
          "name": "operator",
          "type": "address"
        }
      ],
      "name": "isApprovedForAll",
      "outputs": [
        {
          "name": "",
          "type": "bool"
        }
      ],
      "payable": false,
      "stateMutability": "view",
      "type": "function"
    },
    {
      "constant": false,
      "inputs": [
        {
          "name": "newOwner",
          "type": "address"
        }
      ],
      "name": "transferOwnership",
      "outputs": [],
      "payable": false,
      "stateMutability": "nonpayable",
      "type": "function"
    },
    {
      "inputs": [
        {
          "name": "verifierContractAddress",
          "type": "address"
        }
      ],
      "payable": false,
      "stateMutability": "nonpayable",
      "type": "constructor"
    },
    {
      "anonymous": false,
      "inputs": [
        {
          "indexed": false,
          "name": "index",
          "type": "uint256"
        },
        {
          "indexed": false,
          "name": "account",
          "type": "address"
        }
      ],
      "name": "SolutionAdded",
      "type": "event"
    },
    {
      "anonymous": false,
      "inputs": [
        {
          "indexed": true,
          "name": "from",
          "type": "address"
        },
        {
          "indexed": true,
          "name": "to",
          "type": "address"
        },
        {
          "indexed": true,
          "name": "tokenId",
          "type": "uint256"
        }
      ],
      "name": "Transfer",
      "type": "event"
    },
    {
      "anonymous": false,
      "inputs": [
        {
          "indexed": true,
          "name": "owner",
          "type": "address"
        },
        {
          "indexed": true,
          "name": "approved",
          "type": "address"
        },
        {
          "indexed": true,
          "name": "tokenId",
          "type": "uint256"
        }
      ],
      "name": "Approval",
      "type": "event"
    },
    {
      "anonymous": false,
      "inputs": [
        {
          "indexed": true,
          "name": "owner",
          "type": "address"
        },
        {
          "indexed": true,
          "name": "operator",
          "type": "address"
        },
        {
          "indexed": false,
          "name": "approved",
          "type": "bool"
        }
      ],
      "name": "ApprovalForAll",
      "type": "event"
    },
    {
      "anonymous": false,
      "inputs": [
        {
          "indexed": false,
          "name": "pauser",
          "type": "address"
        }
      ],
      "name": "Paused",
      "type": "event"
    },
    {
      "anonymous": false,
      "inputs": [
        {
          "indexed": false,
          "name": "pauser",
          "type": "address"
        }
      ],
      "name": "Unpaused",
      "type": "event"
    },
    {
      "anonymous": false,
      "inputs": [
        {
          "indexed": false,
          "name": "newOwner",
          "type": "address"
        }
      ],
      "name": "NewOwner",
      "type": "event"
    },
    {
      "constant": false,
      "inputs": [
        {
          "name": "a",
          "type": "uint256[2]"
        },
        {
          "name": "b",
          "type": "uint256[2][2]"
        },
        {
          "name": "c",
          "type": "uint256[2]"
        },
        {
          "name": "input",
          "type": "uint256[2]"
        }
      ],
      "name": "addSolution",
      "outputs": [],
      "payable": false,
      "stateMutability": "nonpayable",
      "type": "function"
    },
    {
      "constant": false,
      "inputs": [
        {
          "name": "a",
          "type": "uint256[2]"
        },
        {
          "name": "b",
          "type": "uint256[2][2]"
        },
        {
          "name": "c",
          "type": "uint256[2]"
        },
        {
          "name": "input",
          "type": "uint256[2]"
        }
      ],
      "name": "mintIRealEstateToken",
      "outputs": [],
      "payable": false,
      "stateMutability": "nonpayable",
      "type": "function"
    }
  ],
  "bytecode": "0x60806040526040805190810160405280601081526020017f495265616c457374617465546f6b656e00000000000000000000000000000000815250601390805190602001906200005192919062000658565b506040805190810160405280600481526020017f4952455400000000000000000000000000000000000000000000000000000000815250601490805190602001906200009f92919062000658565b50606060405190810160405280603f81526020017f68747470733a2f2f73332d75732d776573742d322e616d617a6f6e6177732e6381526020017f6f6d2f756461636974792d626c6f636b636861696e2f63617073746f6e652f00815250601590805190602001906200011492919062000658565b503480156200012257600080fd5b50604051602080620042fa833981018060405260208110156200014457600080fd5b810190808051906020019092919050505060138054600181600116156101000203166002900480601f016020809104026020016040519081016040528092919081815260200182805460018160011615610100020316600290048015620001ef5780601f10620001c357610100808354040283529160200191620001ef565b820191906000526020600020905b815481529060010190602001808311620001d157829003601f168201915b505050505060148054600181600116156101000203166002900480601f0160208091040260200160405190810160405280929190818152602001828054600181600116156101000203166002900480156200028e5780601f1062000262576101008083540402835291602001916200028e565b820191906000526020600020905b8154815290600101906020018083116200027057829003601f168201915b505050505060158054600181600116156101000203166002900480601f0160208091040260200160405190810160405280929190818152602001828054600181600116156101000203166002900480156200032d5780601f1062000301576101008083540402835291602001916200032d565b820191906000526020600020905b8154815290600101906020018083116200030f57829003601f168201915b5050505050336000806101000a81548173ffffffffffffffffffffffffffffffffffffffff021916908373ffffffffffffffffffffffffffffffffffffffff1602179055507f3edd90e7770f06fafde38004653b33870066c33bfc923ff6102acd601f85dfbc6000809054906101000a900473ffffffffffffffffffffffffffffffffffffffff16604051808273ffffffffffffffffffffffffffffffffffffffff1673ffffffffffffffffffffffffffffffffffffffff16815260200191505060405180910390a160008060146101000a81548160ff0219169083151502179055506200044d6301ffc9a77c0100000000000000000000000000000000000000000000000000000000026200059a640100000000026401000000009004565b6200048a6380ac58cd7c0100000000000000000000000000000000000000000000000000000000026200059a640100000000026401000000009004565b620004c763780e9d637c0100000000000000000000000000000000000000000000000000000000026200059a640100000000026401000000009004565b82600f9080519060200190620004df92919062000658565b508160109080519060200190620004f892919062000658565b5080601190805190602001906200051192919062000658565b506200054f635b5e139f7c0100000000000000000000000000000000000000000000000000000000026200059a640100000000026401000000009004565b50505080601660006101000a81548173ffffffffffffffffffffffffffffffffffffffff021916908373ffffffffffffffffffffffffffffffffffffffff1602179055505062000707565b63ffffffff7c010000000000000000000000000000000000000000000000000000000002817bffffffffffffffffffffffffffffffffffffffffffffffffffffffff191614151515620005ec57600080fd5b6001806000837bffffffffffffffffffffffffffffffffffffffffffffffffffffffff19167bffffffffffffffffffffffffffffffffffffffffffffffffffffffff1916815260200190815260200160002060006101000a81548160ff02191690831515021790555050565b828054600181600116156101000203166002900490600052602060002090601f016020900481019282601f106200069b57805160ff1916838001178555620006cc565b82800160010185558215620006cc579182015b82811115620006cb578251825591602001919060010190620006ae565b5b509050620006db9190620006df565b5090565b6200070491905b8082111562000700576000816000905550600101620006e6565b5090565b90565b613be380620007176000396000f3fe608060405260043610610159576000357c01000000000000000000000000000000000000000000000000000000009004806301ffc9a71461015e578063081812fc146101d0578063095ea7b31461024b57806315070401146102a657806316c38b3c1461033657806317d7de7c1461037357806318160ddd1461040357806323b872dd1461042e57806327dc297e146104a95780632f745c591461057b57806338bbfa50146105ea57806340c10f191461075357806342842e0e146107c65780634f6ccce7146108415780636352211e146108905780636805b84b1461090b57806370a082311461093a578063893d20e81461099f578063a22cb465146109f6578063b88d4fde14610a53578063bdc32be014610b65578063bff2612614610bf5578063c87b56dd14610c30578063e985e9c514610ce4578063f2fde38b14610d6d578063f76b443114610dbe578063fd504d8b14610f2c575b600080fd5b34801561016a57600080fd5b506101b66004803603602081101561018157600080fd5b8101908080357bffffffffffffffffffffffffffffffffffffffffffffffffffffffff1916906020019092919050505061109a565b604051808215151515815260200191505060405180910390f35b3480156101dc57600080fd5b50610209600480360360208110156101f357600080fd5b8101908080359060200190929190505050611102565b604051808273ffffffffffffffffffffffffffffffffffffffff1673ffffffffffffffffffffffffffffffffffffffff16815260200191505060405180910390f35b34801561025757600080fd5b506102a46004803603604081101561026e57600080fd5b81019080803573ffffffffffffffffffffffffffffffffffffffff1690602001909291908035906020019092919050505061113f565b005b3480156102b257600080fd5b506102bb611367565b6040518080602001828103825283818151815260200191508051906020019080838360005b838110156102fb5780820151818401526020810190506102e0565b50505050905090810190601f1680156103285780820380516001836020036101000a031916815260200191505b509250505060405180910390f35b34801561034257600080fd5b506103716004803603602081101561035957600080fd5b81019080803515159060200190929190505050611409565b005b34801561037f57600080fd5b506103886115e2565b6040518080602001828103825283818151815260200191508051906020019080838360005b838110156103c85780820151818401526020810190506103ad565b50505050905090810190601f1680156103f55780820380516001836020036101000a031916815260200191505b509250505060405180910390f35b34801561040f57600080fd5b50610418611684565b6040518082815260200191505060405180910390f35b34801561043a57600080fd5b506104a76004803603606081101561045157600080fd5b81019080803573ffffffffffffffffffffffffffffffffffffffff169060200190929190803573ffffffffffffffffffffffffffffffffffffffff16906020019092919080359060200190929190505050611691565b005b3480156104b557600080fd5b50610579600480360360408110156104cc57600080fd5b8101908080359060200190929190803590602001906401000000008111156104f357600080fd5b82018360208201111561050557600080fd5b8035906020019184600183028401116401000000008311171561052757600080fd5b91908080601f016020809104026020016040519081016040528093929190818152602001838380828437600081840152601f19601f8201169050808301925050505050505091929192905050506116b6565b005b34801561058757600080fd5b506105d46004803603604081101561059e57600080fd5b81019080803573ffffffffffffffffffffffffffffffffffffffff169060200190929190803590602001909291905050506116f9565b6040518082815260200191505060405180910390f35b3480156105f657600080fd5b506107516004803603606081101561060d57600080fd5b81019080803590602001909291908035906020019064010000000081111561063457600080fd5b82018360208201111561064657600080fd5b8035906020019184600183028401116401000000008311171561066857600080fd5b91908080601f016020809104026020016040519081016040528093929190818152602001838380828437600081840152601f19601f820116905080830192505050505050509192919290803590602001906401000000008111156106cb57600080fd5b8201836020820111156106dd57600080fd5b803590602001918460018302840111640100000000831117156106ff57600080fd5b91908080601f016020809104026020016040519081016040528093929190818152602001838380828437600081840152601f19601f820116905080830192505050505050509192919290505050611770565b005b34801561075f57600080fd5b506107ac6004803603604081101561077657600080fd5b81019080803573ffffffffffffffffffffffffffffffffffffffff16906020019092919080359060200190929190505050611775565b604051808215151515815260200191505060405180910390f35b3480156107d257600080fd5b5061083f600480360360608110156107e957600080fd5b81019080803573ffffffffffffffffffffffffffffffffffffffff169060200190929190803573ffffffffffffffffffffffffffffffffffffffff1690602001909291908035906020019092919050505061187e565b005b34801561084d57600080fd5b5061087a6004803603602081101561086457600080fd5b810190808035906020019092919050505061189f565b6040518082815260200191505060405180910390f35b34801561089c57600080fd5b506108c9600480360360208110156108b357600080fd5b81019080803590602001909291905050506118d7565b604051808273ffffffffffffffffffffffffffffffffffffffff1673ffffffffffffffffffffffffffffffffffffffff16815260200191505060405180910390f35b34801561091757600080fd5b50610920611914565b604051808215151515815260200191505060405180910390f35b34801561094657600080fd5b506109896004803603602081101561095d57600080fd5b81019080803573ffffffffffffffffffffffffffffffffffffffff16906020019092919050505061192a565b6040518082815260200191505060405180910390f35b3480156109ab57600080fd5b506109b461197a565b604051808273ffffffffffffffffffffffffffffffffffffffff1673ffffffffffffffffffffffffffffffffffffffff16815260200191505060405180910390f35b348015610a0257600080fd5b50610a5160048036036040811015610a1957600080fd5b81019080803573ffffffffffffffffffffffffffffffffffffffff1690602001909291908035151590602001909291905050506119a3565b005b348015610a5f57600080fd5b50610b6360048036036080811015610a7657600080fd5b81019080803573ffffffffffffffffffffffffffffffffffffffff169060200190929190803573ffffffffffffffffffffffffffffffffffffffff1690602001909291908035906020019092919080359060200190640100000000811115610add57600080fd5b820183602082011115610aef57600080fd5b80359060200191846001830284011164010000000083111715610b1157600080fd5b91908080601f016020809104026020016040519081016040528093929190818152602001838380828437600081840152601f19601f820116905080830192505050505050509192919290505050611adf565b005b348015610b7157600080fd5b50610b7a611b07565b6040518080602001828103825283818151815260200191508051906020019080838360005b83811015610bba578082015181840152602081019050610b9f565b50505050905090810190601f168015610be75780820380516001836020036101000a031916815260200191505b509250505060405180910390f35b348015610c0157600080fd5b50610c2e60048036036020811015610c1857600080fd5b8101908080359060200190929190505050611ba9565b005b348015610c3c57600080fd5b50610c6960048036036020811015610c5357600080fd5b8101908080359060200190929190505050611cfc565b6040518080602001828103825283818151815260200191508051906020019080838360005b83811015610ca9578082015181840152602081019050610c8e565b50505050905090810190601f168015610cd65780820380516001836020036101000a031916815260200191505b509250505060405180910390f35b348015610cf057600080fd5b50610d5360048036036040811015610d0757600080fd5b81019080803573ffffffffffffffffffffffffffffffffffffffff169060200190929190803573ffffffffffffffffffffffffffffffffffffffff169060200190929190505050611dc5565b604051808215151515815260200191505060405180910390f35b348015610d7957600080fd5b50610dbc60048036036020811015610d9057600080fd5b81019080803573ffffffffffffffffffffffffffffffffffffffff169060200190929190505050611e59565b005b348015610dca57600080fd5b50610f2a6004803603610140811015610de257600080fd5b8101908080604001906002806020026040519081016040528092919082600260200280828437600081840152601f19601f82011690508083019250505050505091929192908060800190600280602002604051908101604052809291906000905b82821015610e97578382604002016002806020026040519081016040528092919082600260200280828437600081840152601f19601f82011690508083019250505050505081526020019060010190610e43565b50505050919291929080604001906002806020026040519081016040528092919082600260200280828437600081840152601f19601f820116905080830192505050505050919291929080604001906002806020026040519081016040528092919082600260200280828437600081840152601f19601f8201169050808301925050505050509192919290505050612153565b005b348015610f3857600080fd5b506110986004803603610140811015610f5057600080fd5b8101908080604001906002806020026040519081016040528092919082600260200280828437600081840152601f19601f82011690508083019250505050505091929192908060800190600280602002604051908101604052809291906000905b82821015611005578382604002016002806020026040519081016040528092919082600260200280828437600081840152601f19601f82011690508083019250505050505081526020019060010190610fb1565b50505050919291929080604001906002806020026040519081016040528092919082600260200280828437600081840152601f19601f820116905080830192505050505050919291929080604001906002806020026040519081016040528092919082600260200280828437600081840152601f19601f82011690508083019250505050505091929192905050506125fa565b005b600060016000837bffffffffffffffffffffffffffffffffffffffffffffffffffffffff19167bffffffffffffffffffffffffffffffffffffffffffffffffffffffff1916815260200190815260200160002060009054906101000a900460ff169050919050565b60006003600083815260200190815260200160002060009054906101000a900473ffffffffffffffffffffffffffffffffffffffff169050919050565b8173ffffffffffffffffffffffffffffffffffffffff1661115f826118d7565b73ffffffffffffffffffffffffffffffffffffffff16141515156111eb576040517f08c379a000000000000000000000000000000000000000000000000000000000815260040180806020018281038252601f8152602001807f4164647265737320616c7265616479206f776e73207468697320746f6b656e0081525060200191505060405180910390fd5b3373ffffffffffffffffffffffffffffffffffffffff1661120a61197a565b73ffffffffffffffffffffffffffffffffffffffff16148061123a575061123933611234836118d7565b611dc5565b5b15156112ae576040517f08c379a00000000000000000000000000000000000000000000000000000000081526004018080602001828103825260188152602001807f43616c6c6572206973206e6f7420617574686f7269736564000000000000000081525060200191505060405180910390fd5b816003600083815260200190815260200160002060006101000a81548173ffffffffffffffffffffffffffffffffffffffff021916908373ffffffffffffffffffffffffffffffffffffffff160217905550808273ffffffffffffffffffffffffffffffffffffffff16611321836118d7565b73ffffffffffffffffffffffffffffffffffffffff167f8c5be1e5ebec7d5bd14f71427d1e84f3dd0314c0f7b2291e5b200ac8c7c3b92560405160405180910390a45050565b606060108054600181600116156101000203166002900480601f0160208091040260200160405190810160405280929190818152602001828054600181600116156101000203166002900480156113ff5780601f106113d4576101008083540402835291602001916113ff565b820191906000526020600020905b8154815290600101906020018083116113e257829003601f168201915b5050505050905090565b6000809054906101000a900473ffffffffffffffffffffffffffffffffffffffff1673ffffffffffffffffffffffffffffffffffffffff163373ffffffffffffffffffffffffffffffffffffffff161415156114f3576040517f08c379a00000000000000000000000000000000000000000000000000000000081526004018080602001828103825260228152602001807f4f776e6572206f66207468697320636f6e74726163742069732072657175697281526020017f656400000000000000000000000000000000000000000000000000000000000081525060400191505060405180910390fd5b80600060146101000a81548160ff021916908315150217905550801561157b577f62e78cea01bee320cd4e420270b5ea74000d11b0c9f74754ebdbfc544b05a25833604051808273ffffffffffffffffffffffffffffffffffffffff1673ffffffffffffffffffffffffffffffffffffffff16815260200191505060405180910390a16115df565b7f5db9ee0a495bf2e6ff9c91a7834c1ba4fdd244a5e8aa4e537bd38aeae4b073aa33604051808273ffffffffffffffffffffffffffffffffffffffff1673ffffffffffffffffffffffffffffffffffffffff16815260200191505060405180910390a15b50565b6060600f8054600181600116156101000203166002900480601f01602080910402602001604051908101604052809291908181526020018280546001816001161561010002031660029004801561167a5780601f1061164f5761010080835404028352916020019161167a565b820191906000526020600020905b81548152906001019060200180831161165d57829003601f168201915b5050505050905090565b6000600880549050905090565b61169b3382612827565b15156116a657600080fd5b6116b18383836128bc565b505050565b6116f5828260006040519080825280601f01601f1916602001820160405280156116ef5781602001600182028038833980820191505090505b50611770565b5050565b60006117048361192a565b8210151561171157600080fd5b600660008473ffffffffffffffffffffffffffffffffffffffff1673ffffffffffffffffffffffffffffffffffffffff1681526020019081526020016000208281548110151561175d57fe5b9060005260206000200154905092915050565b505050565b60008060009054906101000a900473ffffffffffffffffffffffffffffffffffffffff1673ffffffffffffffffffffffffffffffffffffffff163373ffffffffffffffffffffffffffffffffffffffff16141515611861576040517f08c379a00000000000000000000000000000000000000000000000000000000081526004018080602001828103825260228152602001807f4f776e6572206f66207468697320636f6e74726163742069732072657175697281526020017f656400000000000000000000000000000000000000000000000000000000000081525060400191505060405180910390fd5b61186b83836128e0565b61187482611ba9565b6001905092915050565b61189a8383836020604051908101604052806000815250611adf565b505050565b60006118a9611684565b821015156118b657600080fd5b6008828154811015156118c557fe5b90600052602060002001549050919050565b60006002600083815260200190815260200160002060009054906101000a900473ffffffffffffffffffffffffffffffffffffffff169050919050565b60008060149054906101000a900460ff16905090565b6000611973600460008473ffffffffffffffffffffffffffffffffffffffff1673ffffffffffffffffffffffffffffffffffffffff168152602001908152602001600020612901565b9050919050565b60008060009054906101000a900473ffffffffffffffffffffffffffffffffffffffff16905090565b3373ffffffffffffffffffffffffffffffffffffffff168273ffffffffffffffffffffffffffffffffffffffff16141515156119de57600080fd5b80600560003373ffffffffffffffffffffffffffffffffffffffff1673ffffffffffffffffffffffffffffffffffffffff16815260200190815260200160002060008473ffffffffffffffffffffffffffffffffffffffff1673ffffffffffffffffffffffffffffffffffffffff16815260200190815260200160002060006101000a81548160ff0219169083151502179055508173ffffffffffffffffffffffffffffffffffffffff163373ffffffffffffffffffffffffffffffffffffffff167f17307eab39ab6107e8899845ad3d59bd9653f200f220920489ca2b5937696c3183604051808215151515815260200191505060405180910390a35050565b611aea848484611691565b611af68484848461290f565b1515611b0157600080fd5b50505050565b606060118054600181600116156101000203166002900480601f016020809104026020016040519081016040528092919081815260200182805460018160011615610100020316600290048015611b9f5780601f10611b7457610100808354040283529160200191611b9f565b820191906000526020600020905b815481529060010190602001808311611b8257829003601f168201915b5050505050905090565b611bb281612b32565b1515611c26576040517f08c379a00000000000000000000000000000000000000000000000000000000081526004018080602001828103825260148152602001807f546f6b656e20646f6573206e6f7420657869737400000000000000000000000081525060200191505060405180910390fd5b611cd260118054600181600116156101000203166002900480601f016020809104026020016040519081016040528092919081815260200182805460018160011615610100020316600290048015611cbf5780601f10611c9457610100808354040283529160200191611cbf565b820191906000526020600020905b815481529060010190602001808311611ca257829003601f168201915b5050505050611ccd83612ba4565b612cfd565b601260008381526020019081526020016000209080519060200190611cf8929190613ae6565b5050565b6060611d0782612b32565b1515611d1257600080fd5b601260008381526020019081526020016000208054600181600116156101000203166002900480601f016020809104026020016040519081016040528092919081815260200182805460018160011615610100020316600290048015611db95780601f10611d8e57610100808354040283529160200191611db9565b820191906000526020600020905b815481529060010190602001808311611d9c57829003601f168201915b50505050509050919050565b6000600560008473ffffffffffffffffffffffffffffffffffffffff1673ffffffffffffffffffffffffffffffffffffffff16815260200190815260200160002060008373ffffffffffffffffffffffffffffffffffffffff1673ffffffffffffffffffffffffffffffffffffffff16815260200190815260200160002060009054906101000a900460ff16905092915050565b6000809054906101000a900473ffffffffffffffffffffffffffffffffffffffff1673ffffffffffffffffffffffffffffffffffffffff163373ffffffffffffffffffffffffffffffffffffffff16141515611f43576040517f08c379a00000000000000000000000000000000000000000000000000000000081526004018080602001828103825260228152602001807f4f776e6572206f66207468697320636f6e74726163742069732072657175697281526020017f656400000000000000000000000000000000000000000000000000000000000081525060400191505060405180910390fd5b611f4c81612d44565b151515611fe7576040517f08c379a000000000000000000000000000000000000000000000000000000000815260040180806020018281038252602f8152602001807f43616e6e6f74207472616e73666572206f776e65727368697020746f2061206381526020017f6f6e7472616374206163636f756e74000000000000000000000000000000000081525060400191505060405180910390fd5b600073ffffffffffffffffffffffffffffffffffffffff168173ffffffffffffffffffffffffffffffffffffffff161415151561208c576040517f08c379a00000000000000000000000000000000000000000000000000000000081526004018080602001828103825260128152602001807f4164647265737320697320696e76616c6964000000000000000000000000000081525060200191505060405180910390fd5b806000806101000a81548173ffffffffffffffffffffffffffffffffffffffff021916908373ffffffffffffffffffffffffffffffffffffffff1602179055507f3edd90e7770f06fafde38004653b33870066c33bfc923ff6102acd601f85dfbc6000809054906101000a900473ffffffffffffffffffffffffffffffffffffffff16604051808273ffffffffffffffffffffffffffffffffffffffff1673ffffffffffffffffffffffffffffffffffffffff16815260200191505060405180910390a150565b600061215e82612d57565b9050600073ffffffffffffffffffffffffffffffffffffffff166018600083815260200190815260200160002060010160009054906101000a900473ffffffffffffffffffffffffffffffffffffffff1673ffffffffffffffffffffffffffffffffffffffff1614151561223a576040517f08c379a00000000000000000000000000000000000000000000000000000000081526004018080602001828103825260178152602001807f536f6c7574696f6e20616c72656164792065786973747300000000000000000081525060200191505060405180910390fd5b6000601660009054906101000a900473ffffffffffffffffffffffffffffffffffffffff1673ffffffffffffffffffffffffffffffffffffffff1663621e9ec0878787876040518563ffffffff167c01000000000000000000000000000000000000000000000000000000000281526004018085600260200280838360005b838110156122d45780820151818401526020810190506122b9565b505050509050018460026000925b818410156123285782846020020151600260200280838360005b838110156123175780820151818401526020810190506122fc565b5050505090500192600101926122e2565b9250505083600260200280838360005b83811015612353578082015181840152602081019050612338565b5050505090500182600260200280838360005b83811015612381578082015181840152602081019050612366565b50505050905001945050505050602060405180830381600087803b1580156123a857600080fd5b505af11580156123bc573d6000803e3d6000fd5b505050506040513d60208110156123d257600080fd5b8101908080519060200190929190505050905080151561245a576040517f08c379a00000000000000000000000000000000000000000000000000000000081526004018080602001828103825260188152602001807f536f6c7574696f6e206973206e6f74206163636570746564000000000000000081525060200191505060405180910390fd5b6124646017612db5565b60606040519081016040528061247a6017612901565b81526020013373ffffffffffffffffffffffffffffffffffffffff168152602001600060018111156124a857fe5b815250601860008481526020019081526020016000206000820151816000015560208201518160010160006101000a81548173ffffffffffffffffffffffffffffffffffffffff021916908373ffffffffffffffffffffffffffffffffffffffff16021790555060408201518160010160146101000a81548160ff0219169083600181111561253357fe5b02179055509050507f078793128cefb19aac38a33f9e5df39f67716907f6d747e8065545699e0b2b8d60186000848152602001908152602001600020600001546018600085815260200190815260200160002060010160009054906101000a900473ffffffffffffffffffffffffffffffffffffffff16604051808381526020018273ffffffffffffffffffffffffffffffffffffffff1673ffffffffffffffffffffffffffffffffffffffff1681526020019250505060405180910390a1505050505050565b600061260582612d57565b90503373ffffffffffffffffffffffffffffffffffffffff166018600083815260200190815260200160002060010160009054906101000a900473ffffffffffffffffffffffffffffffffffffffff1673ffffffffffffffffffffffffffffffffffffffff161415156126e0576040517f08c379a00000000000000000000000000000000000000000000000000000000081526004018080602001828103825260168152602001807f4e6f742074686520736f6c7574696f6e206f776e65720000000000000000000081525060200191505060405180910390fd5b6001808111156126ec57fe5b6018600083815260200190815260200160002060010160149054906101000a900460ff16600181111561271b57fe5b14151515612791576040517f08c379a00000000000000000000000000000000000000000000000000000000081526004018080602001828103825260208152602001807f536f6c7574696f6e2068617320616c7265616479206265656e206d696e74656481525060200191505060405180910390fd5b6127e76018600083815260200190815260200160002060010160009054906101000a900473ffffffffffffffffffffffffffffffffffffffff166018600084815260200190815260200160002060000154611775565b5060016018600083815260200190815260200160002060010160146101000a81548160ff0219169083600181111561281b57fe5b02179055505050505050565b600080612833836118d7565b90508073ffffffffffffffffffffffffffffffffffffffff168473ffffffffffffffffffffffffffffffffffffffff1614806128a257508373ffffffffffffffffffffffffffffffffffffffff1661288a84611102565b73ffffffffffffffffffffffffffffffffffffffff16145b806128b357506128b28185611dc5565b5b91505092915050565b6128c7838383612dcb565b6128d1838261308a565b6128db828261322e565b505050565b6128ea82826132f5565b6128f4828261322e565b6128fd81613511565b5050565b600081600001549050919050565b60006129308473ffffffffffffffffffffffffffffffffffffffff16612d44565b151561293f5760019050612b2a565b60008473ffffffffffffffffffffffffffffffffffffffff1663150b7a02338887876040518563ffffffff167c0100000000000000000000000000000000000000000000000000000000028152600401808573ffffffffffffffffffffffffffffffffffffffff1673ffffffffffffffffffffffffffffffffffffffff1681526020018473ffffffffffffffffffffffffffffffffffffffff1673ffffffffffffffffffffffffffffffffffffffff16815260200183815260200180602001828103825283818151815260200191508051906020019080838360005b83811015612a36578082015181840152602081019050612a1b565b50505050905090810190601f168015612a635780820380516001836020036101000a031916815260200191505b5095505050505050602060405180830381600087803b158015612a8557600080fd5b505af1158015612a99573d6000803e3d6000fd5b505050506040513d6020811015612aaf57600080fd5b8101908080519060200190929190505050905063150b7a027c0100000000000000000000000000000000000000000000000000000000027bffffffffffffffffffffffffffffffffffffffffffffffffffffffff1916817bffffffffffffffffffffffffffffffffffffffffffffffffffffffff1916149150505b949350505050565b6000806002600084815260200190815260200160002060009054906101000a900473ffffffffffffffffffffffffffffffffffffffff169050600073ffffffffffffffffffffffffffffffffffffffff168173ffffffffffffffffffffffffffffffffffffffff161415915050919050565b60606000821415612bec576040805190810160405280600181526020017f30000000000000000000000000000000000000000000000000000000000000008152509050612cf8565b600082905060005b600082141515612c1a578080600101915050600a82811515612c1257fe5b049150612bf4565b6060816040519080825280601f01601f191660200182016040528015612c4f5781602001600182028038833980820191505090505b50905060006001830390505b600086141515612cf057600a86811515612c7157fe5b066030017f010000000000000000000000000000000000000000000000000000000000000002828280600190039350815181101515612cac57fe5b9060200101907effffffffffffffffffffffffffffffffffffffffffffffffffffffffffffff1916908160001a905350600a86811515612ce857fe5b049550612c5b565b819450505050505b919050565b6060612d3c838360206040519081016040528060008152506020604051908101604052806000815250602060405190810160405280600081525061355d565b905092915050565b600080823b905060008111915050919050565b6000816000600281101515612d6857fe5b6020020151826001600281101515612d7c57fe5b60200201516040516020018083815260200182815260200192505050604051602081830303815290604052805190602001209050919050565b6001816000016000828254019250508190555050565b8273ffffffffffffffffffffffffffffffffffffffff16612deb826118d7565b73ffffffffffffffffffffffffffffffffffffffff16141515612e9c576040517f08c379a000000000000000000000000000000000000000000000000000000000815260040180806020018281038252602a8152602001807f46726f6d2061646472657373206973206e6f7420746865206f776e6572206f6681526020017f2074686520746f6b656e0000000000000000000000000000000000000000000081525060400191505060405180910390fd5b600073ffffffffffffffffffffffffffffffffffffffff168273ffffffffffffffffffffffffffffffffffffffff1614151515612f41576040517f08c379a00000000000000000000000000000000000000000000000000000000081526004018080602001828103825260128152602001807f4164647265737320697320696e76616c6964000000000000000000000000000081525060200191505060405180910390fd5b612f4a81613978565b612f91600460008573ffffffffffffffffffffffffffffffffffffffff1673ffffffffffffffffffffffffffffffffffffffff168152602001908152602001600020613a38565b612fd8600460008473ffffffffffffffffffffffffffffffffffffffff1673ffffffffffffffffffffffffffffffffffffffff168152602001908152602001600020612db5565b816002600083815260200190815260200160002060006101000a81548173ffffffffffffffffffffffffffffffffffffffff021916908373ffffffffffffffffffffffffffffffffffffffff160217905550808273ffffffffffffffffffffffffffffffffffffffff168473ffffffffffffffffffffffffffffffffffffffff167fddf252ad1be2c89b69c2b068fc378daa952ba7f163c4a11628f55a4df523b3ef60405160405180910390a4505050565b60006130e26001600660008673ffffffffffffffffffffffffffffffffffffffff1673ffffffffffffffffffffffffffffffffffffffff16815260200190815260200160002080549050613a5b90919063ffffffff16565b905060006007600084815260200190815260200160002054905081811415156131d5576000600660008673ffffffffffffffffffffffffffffffffffffffff1673ffffffffffffffffffffffffffffffffffffffff1681526020019081526020016000208381548110151561315357fe5b9060005260206000200154905080600660008773ffffffffffffffffffffffffffffffffffffffff1673ffffffffffffffffffffffffffffffffffffffff168152602001908152602001600020838154811015156131ad57fe5b9060005260206000200181905550816007600083815260200190815260200160002081905550505b600660008573ffffffffffffffffffffffffffffffffffffffff1673ffffffffffffffffffffffffffffffffffffffff1681526020019081526020016000208054809190600190036132279190613b66565b5050505050565b600660008373ffffffffffffffffffffffffffffffffffffffff1673ffffffffffffffffffffffffffffffffffffffff168152602001908152602001600020805490506007600083815260200190815260200160002081905550600660008373ffffffffffffffffffffffffffffffffffffffff1673ffffffffffffffffffffffffffffffffffffffff1681526020019081526020016000208190806001815401808255809150509060018203906000526020600020016000909192909190915055505050565b600073ffffffffffffffffffffffffffffffffffffffff168273ffffffffffffffffffffffffffffffffffffffff161415151561339a576040517f08c379a00000000000000000000000000000000000000000000000000000000081526004018080602001828103825260128152602001807f4164647265737320697320696e76616c6964000000000000000000000000000081525060200191505060405180910390fd5b6133a381612b32565b151515613418576040517f08c379a00000000000000000000000000000000000000000000000000000000081526004018080602001828103825260148152602001807f546f6b656e20616c72656164792065786973747300000000000000000000000081525060200191505060405180910390fd5b816002600083815260200190815260200160002060006101000a81548173ffffffffffffffffffffffffffffffffffffffff021916908373ffffffffffffffffffffffffffffffffffffffff1602179055506134b1600460008473ffffffffffffffffffffffffffffffffffffffff1673ffffffffffffffffffffffffffffffffffffffff168152602001908152602001600020612db5565b808273ffffffffffffffffffffffffffffffffffffffff16600073ffffffffffffffffffffffffffffffffffffffff167fddf252ad1be2c89b69c2b068fc378daa952ba7f163c4a11628f55a4df523b3ef60405160405180910390a45050565b6008805490506009600083815260200190815260200160002081905550600881908060018154018082558091505090600182039060005260206000200160009091929091909150555050565b6060808690506060869050606086905060608690506060869050606081518351855187518951010101016040519080825280601f01601f1916602001820160405280156135b95781602001600182028038833980820191505090505b509050606081905060008090506000809050600090505b88518110156136835788818151811015156135e757fe5b9060200101517f010000000000000000000000000000000000000000000000000000000000000090047f010000000000000000000000000000000000000000000000000000000000000002838380600101945081518110151561364657fe5b9060200101907effffffffffffffffffffffffffffffffffffffffffffffffffffffffffffff1916908160001a90535080806001019150506135d0565b600090505b875181101561373b57878181518110151561369f57fe5b9060200101517f010000000000000000000000000000000000000000000000000000000000000090047f01000000000000000000000000000000000000000000000000000000000000000283838060010194508151811015156136fe57fe5b9060200101907effffffffffffffffffffffffffffffffffffffffffffffffffffffffffffff1916908160001a9053508080600101915050613688565b600090505b86518110156137f357868181518110151561375757fe5b9060200101517f010000000000000000000000000000000000000000000000000000000000000090047f01000000000000000000000000000000000000000000000000000000000000000283838060010194508151811015156137b657fe5b9060200101907effffffffffffffffffffffffffffffffffffffffffffffffffffffffffffff1916908160001a9053508080600101915050613740565b600090505b85518110156138ab57858181518110151561380f57fe5b9060200101517f010000000000000000000000000000000000000000000000000000000000000090047f010000000000000000000000000000000000000000000000000000000000000002838380600101945081518110151561386e57fe5b9060200101907effffffffffffffffffffffffffffffffffffffffffffffffffffffffffffff1916908160001a90535080806001019150506137f8565b600090505b84518110156139635784818151811015156138c757fe5b9060200101517f010000000000000000000000000000000000000000000000000000000000000090047f010000000000000000000000000000000000000000000000000000000000000002838380600101945081518110151561392657fe5b9060200101907effffffffffffffffffffffffffffffffffffffffffffffffffffffffffffff1916908160001a90535080806001019150506138b0565b82995050505050505050505095945050505050565b600073ffffffffffffffffffffffffffffffffffffffff166003600083815260200190815260200160002060009054906101000a900473ffffffffffffffffffffffffffffffffffffffff1673ffffffffffffffffffffffffffffffffffffffff16141515613a355760006003600083815260200190815260200160002060006101000a81548173ffffffffffffffffffffffffffffffffffffffff021916908373ffffffffffffffffffffffffffffffffffffffff1602179055505b50565b613a5060018260000154613a5b90919063ffffffff16565b816000018190555050565b6000828211151515613ad5576040517f08c379a000000000000000000000000000000000000000000000000000000000815260040180806020018281038252601e8152602001807f536166654d6174683a207375627472616374696f6e206f766572666c6f77000081525060200191505060405180910390fd5b600082840390508091505092915050565b828054600181600116156101000203166002900490600052602060002090601f016020900481019282601f10613b2757805160ff1916838001178555613b55565b82800160010185558215613b55579182015b82811115613b54578251825591602001919060010190613b39565b5b509050613b629190613b92565b5090565b815481835581811115613b8d57818360005260206000209182019101613b8c9190613b92565b5b505050565b613bb491905b80821115613bb0576000816000905550600101613b98565b5090565b9056fea165627a7a7230582036adb16fed9aeb38acf27545ed1a2a1660889424d11a6bd6b911d9eee4d66d260029",
  "source": "pragma solidity >=0.4.21 <0.6.0;\n\nimport 'openzeppelin-solidity/contracts/drafts/Counters.sol';\nimport \"./ERC721Mintable.sol\";\n\ncontract SolnSquareVerifier is IRealEstateToken {\n\n    using Counters for Counters.Counter;\n\n    Verifier private verifierContract;\n\n    enum SolutionState { Verified, Minted }\n\n    struct Solution {\n        uint256 index;\n        address account;\n        SolutionState state;\n    }\n\n    Counters.Counter private solutionsCount;\n\n    mapping(bytes32 => Solution) private solutions;\n\n    event SolutionAdded(uint256 index, address account);\n\n\n    constructor(address verifierContractAddress)\n    public\n    {\n        verifierContract = Verifier(verifierContractAddress);\n    }\n\n\n    function addSolution(\n        uint[2] memory a,\n        uint[2][2] memory b,\n        uint[2] memory c,\n        uint[2] memory input\n    )\n    public\n    {\n        bytes32 hash = getSolutionHash(input);\n\n        require(solutions[hash].account == address(0), \"Solution already exists\");\n\n        bool verified = verifierContract.verifyTx(a, b, c, input);\n\n        require(verified, \"Solution is not accepted\");\n\n        solutionsCount.increment();\n        solutions[hash] = Solution(solutionsCount.current(), msg.sender, SolutionState.Verified);\n\n        emit SolutionAdded( solutions[hash].index, solutions[hash].account );\n    }\n\n    function mintIRealEstateToken(\n        uint[2] memory a,\n        uint[2][2] memory b,\n        uint[2] memory c,\n        uint[2] memory input\n    )\n    public\n    {\n        bytes32 hash = getSolutionHash(input);\n\n        require(solutions[hash].account == msg.sender, \"Not the solution owner\");\n        require(solutions[hash].state != SolutionState.Minted, \"Solution has already been minted\");\n\n        mint(solutions[hash].account, solutions[hash].index);\n        solutions[hash].state = SolutionState.Minted;\n    }\n\n\n    function getSolutionHash(uint[2] memory input)\n    private\n    returns (bytes32)\n    {\n        return keccak256( abi.encodePacked(input[0], input[1]) );\n    }\n\n}\n\ncontract Verifier {\n\n    function verifyTx(\n        uint[2] memory a,\n        uint[2][2] memory b,\n        uint[2] memory c,\n        uint[2] memory input\n    )\n    public\n    returns (bool)\n    {\n        return true;\n    }\n\n}\n\n\n\n\n\n\n\n\n\n\n\n\n\n\n\n\n\n\n\n\n\n\n\n\n\n\n",
  "sourcePath": "/Users/ireaderinokun/Work/Blockchain Developer Nanodegree/Projects/5-real-estate-marketplace/eth-contracts/contracts/SolnSquareVerifier.sol",
  "compiler": {
    "name": "solc",
    "version": "0.5.1+commit.c8a2cb62.Emscripten.clang"
  },
  "schemaVersion": "3.0.11",
  "updatedAt": "2019-09-02T18:28:42.328Z",
  "devdoc": {
    "methods": {
      "isApprovedForAll(address,address)": {
        "details": "Tells whether an operator is approved by a given owner",
        "params": {
          "operator": "operator address which you want to query the approval of",
          "owner": "owner address which you want to query the approval of"
        },
        "return": "bool whether the given operator is approved by the given owner"
      },
      "setApprovalForAll(address,bool)": {
        "details": "Sets or unsets the approval of a given operator An operator is allowed to transfer all tokens of the sender on their behalf",
        "params": {
          "approved": "representing the status of the approval to be set",
          "to": "operator address to set the approval"
        }
      },
      "supportsInterface(bytes4)": {
        "details": "implement supportsInterface(bytes4) using a lookup table"
      },
      "tokenByIndex(uint256)": {
        "details": "Gets the token ID at a given index of all the tokens in this contract Reverts if the index is greater or equal to the total number of tokens",
        "params": {
          "index": "uint256 representing the index to be accessed of the tokens list"
        },
        "return": "uint256 token ID at the given index of the tokens list"
      },
      "tokenOfOwnerByIndex(address,uint256)": {
        "details": "Gets the token ID at a given index of the tokens list of the requested owner",
        "params": {
          "index": "uint256 representing the index to be accessed of the requested tokens list",
          "owner": "address owning the tokens list to be accessed"
        },
        "return": "uint256 token ID at the given index of the tokens list owned by the requested address"
      },
      "totalSupply()": {
        "details": "Gets the total amount of tokens stored by the contract",
        "return": "uint256 representing the total amount of tokens"
      }
    }
  },
  "userdoc": {
    "methods": {}
  }
}